:020000040800F2
:1000000080060020A1010008A9010008AB0100083A
:10001000AD010008AF010008B101000800000000B8
:10002000000000000000000000000000B301000814
:10003000B501000800000000B7010008BD19000864
:10004000BB010008BB010008BB010008BB010008A0
:10005000BB010008BB010008B1140008DD14000852
:10006000BB010008BB010008BB010008BB01000880
:10007000BB010008BB010008BB010008BB01000870
:10008000BB010008BB010008BB010008BB01000860
:10009000BB010008BB010008BB010008BB01000850
:1000A000BB010008BB010008BB010008BB01000840
:1000B000BB010008BB010008BB010008BB01000830
:1000C000BB010008BB010008BB010008BB01000820
:1000D000BB010008BB010008BB010008BB01000810
:1000E000BB010008BB010008BB01000800F002F8DA
:1000F00000F047F80AA090E8000C82448344AAF17B
:100100000107DA4501D100F03CF8AFF2090EBAE878
:100110000F0013F0010F18BFFB1A43F0010318473B
:100120003827000058270000103A24BF78C878C14B
:10013000FAD8520724BF30C830C144BF04680C60ED
:10014000704700000023002400250026103A28BF35
:1001500078C1FBD8520728BF30C148BF0B60704739
:10016000662902F02C83002070471FB500F004FBC5
:1001700004000020002101F063FDE0601FBD10B508
:1001800010BD00F0F9FB1146FFF7EFFF01F0C0FCD6
:1001900000F017FC03B4FFF7F2FF03BC00F05AFCB9
:1001A0000948804709480047FEE7FEE7FEE7FEE70B
:1001B000FEE7FEE7FEE7FEE7FEE7FEE70448054947
:1001C000054A064B70470000791A0008ED00000848
:1001D0008000002080060020800200208002002095
:1001E0000FB41CB5074B06AA7B44694600900598DE
:1001F00000F0A9FA0020694600F0B8FA1CBC5DF8CE
:1002000014FB0000810500002DE9F0474FF0000AC3
:1002100089460446C0F820A02046E16888470028A7
:1002200076D0252806D0D4E901219047206A401CC9
:100230002062F1E7E168204600258847C4F81CA049
:1002400006460027C4F818A02A2E09D0304601F02F
:1002500057FC38B304EB8708303EC8F8186019E043
:1002600059F8041B204604EB87029161E168884736
:10027000012F064618D1E069002820DA25F0200574
:100280001DE0D8F8180000EB800006EB4000303885
:10029000C8F818002046E1688847064601F030FC9F
:1002A0000028EED1012F0AD02E2E08D12046E16879
:1002B00088477F1C0646022F45F02005C4DBA06955
:1002C000002803DA404245F00105A061E80701D0AB
:1002D00025F01005B6B1A6F14100192802D8203644
:1002E00045F400654A463146204625604D46FFF7F5
:1002F00037FF58B1012806D0ED1D25F0070000F1A9
:10030000080989E704E005F1040985E730468AE732
:10031000206ABDE8F08770477047704770472DE945
:10032000FF4F0C461E464FF0FF378BB0D2E900015D
:10033000DDF860800A908A46C1F30A5505B93D464A
:10034000002108464FF00000BAF1000F00F4400011
:1003500005DA00EB80004FF4400101EA50004FEA5B
:100360009059B9F1010F00DDB9460A9850EA4A00E8
:100370000ED044F61050A5F2FF3545432F14B8F1C6
:10038000000F1ED07542291E1EDDC9F100021CE0BF
:10039000B8F1010F4FF0000001D0302103E0F2432B
:1003A00005E02154401CB042FBDB30460022002116
:1003B00021540B99C1F80880C1E900200FB0BDE8B5
:1003C000F08FBD1B6D1CDEE74A4600DA694206A8C5
:1003D00000F05CFA06AB93E8070003AB83E8070084
:1003E00050460A9900F03DFB8DE80700A0F500504B
:1003F0001F3800900398002D0ADD42F21F014A4683
:100400000844002303A90390684600F0A6FD09E014
:10041000A0F500504A461F38002303A90390684600
:1004200000F0B0FD8DE807000004000C03D04FF091
:10043000FF30410800E01046B8F1000F03D0002261
:10044000009215461EE0751E05D400F099F9303271
:1004500062556D1EF9D5B3460122084302D0002231
:100460007F1C04E02078302801D100227F1E002A62
:10047000099784D01DE0112D07DA00F081F93032A0
:1004800062556D1C50EA0102F5D1084302D0009874
:10049000C8B10EE00021681E05E0235C625C635475
:1004A0002254401E491C8142F7DBAB46A81B401E6C
:1004B0000990002004F80B000B98099AC0F80880F6
:1004C000C0E9002B7AE711264FF0000857E72DE925
:1004D000F04F88460446D21D22F0070191B0D1E9C1
:1004E0000001CDE90A0101F0F7FA02460B98C00FAE
:1004F00001D02D2007E02068810701D52B2002E0E4
:10050000202101EAC000032A099001D0072A05DB57
:1005100003464146204600F079F90BE12078800639
:1005200001D5E06900E00620B8F1650F814606D0EC
:10053000B8F1660F18D0B8F1670F70D131E0002024
:10054000B9F1110F009001DB112301E009F1010362
:100550000AAA01A90CA8FFF7E2FEDDE90C7000264B
:1005600009F10105834647E001204B4600904FF01A
:1005700000470AAA01A90CA8FFF7D1FEDDE90DB0DA
:100580000C995D46002610B909F101000D18B9EB70
:10059000050003D4C0F1FF3609F10105A5EB090000
:1005A0002BE0B9F1010F01DA4FF001090020B9F198
:1005B000110F0090484601DD112300E003460AAA0E
:1005C00001A90CA8FFF7ABFEDDE90C704D46002633
:1005D0008346207800070AD4AB4500DA5D4601A8BF
:1005E000012D04DD411911F8011C302907D04F45B8
:1005F00002DA17F1040F04DA012082460FE06D1EC3
:10060000EEE7002F02DCED1B3E4403E0781CA8421D
:1006100000DD7D1CB81B00F1010A4FF00047207877
:10062000000703D4AA4501DB4FF0FF3A0021B7F1E0
:10063000004F0DF143088DF8431024D002202B23E6
:10064000002F01DA7F422D230A21021EA0F10100B2
:1006500000DC5FB197FBF1FC97FBF1F201FB1C7C26
:1006600017460CF1300C08F801CDEEE7A8F10100B7
:1006700003702188090501D5452100E06521A0F11D
:10068000010800F8011C09980FA9A1EB0807FF1D3C
:1006900000B10120411901EBEA70A1693844081A40
:1006A000401EA0612078C00602D42046AFF300802F
:1006B000099828B1D4E901219047206A401C2062A2
:1006C0002078C00622D52046AFF300801EE0002E21
:1006D00004DBB34502DD01A8805D00E03020D4E9F1
:1006E00001219047206A401C2062761CAAF101007B
:1006F0005FEA000A0AD100F03FF8C0680168405C78
:10070000D4E901219047206A401C2062281EA5F1EF
:100710000105DCDC07E0D4E9012118F8010B904762
:10072000206A401C2062381EA7F10107F3DC204636
:10073000AFF30080032011B041E6000001694A1CBC
:1007400002610878704700B58FB0CDE90131002112
:10075000059105497944CDE9031011466846FFF734
:1007600053FD0FB000BD0000E5FFFFFF0A6802F86F
:10077000010B0A60704700000048704740000020ED
:1007800030B5B0F10A024FEA900E71F100034EEA63
:10079000817EB0EB0E0061EB91014FEA101E4EEA34
:1007A000017E10EB0E0041EB11114FEA102E4EEAC4
:1007B000016E10EB0E0041EB11214FEA104E4EEA94
:1007C000014E10EB0E0041EB1141401841F10001C8
:1007D0004FEAD00040EA41704FEAD10110EB8005AA
:1007E0004FEA810444EA907444EB01046D1944EB30
:1007F0000404521BA3414FF0000348BF0A3200D546
:1008000030BD401C41F1000130BD00002DE9F04138
:100810001F46044603260168072A01F4006004DB32
:1008200008B116A505E016A503E008B115A500E07E
:1008300015A521F010002060A069C01EA0610FB1B5
:10084000401EA0612046AFF300804FB1D4E90121E2
:1008500038469047206A401C2062C01C206206E097
:10086000206AFAE7D4E9012115F8010B9047761EBA
:10087000F8D22046AFF30080BDE8F0814E414E0033
:100880006E616E00494E4600696E66002DE9F047C4
:10089000814616468AB0354878440DC88DE80D006B
:1008A00032487844801C03AC0DC884E80D0041F642
:1008B0009B300844372190FBF1F290FBF1F5A5F154
:1008C000800501FB12041B3C02D56442012000E0BC
:1008D0000020DFF898A080460027FA44AAF1BE0A5B
:1008E0000EE0E0070AD03246684607EB47010123D5
:1008F0000AEB810100F046FB8DE8070064107F1CC5
:10090000002CEED1194F7F44AE3F19E0E80715D017
:1009100007EB04100DF1180A90E80E008AE80E00AB
:10092000C068F04201D1981908903246012306A907
:1009300003A800F027FB03AB83E807006D10641CDD
:10094000002DE3D14FF0010332466946B8F1000FA4
:1009500003A802D000F001FB01E000F013FBC9E99D
:100960000001C9F808200AB0BDE8F087A41F000004
:1009700000487047200000207546FFF7F9FFAE469B
:1009800005006946534620F00700854618B020B59B
:10099000FFF714FCBDE820404FF000064FF00007C1
:1009A0004FF000084FF0000B21F00701AC46ACE817
:1009B000C009ACE8C009ACE8C009ACE8C0098D4684
:1009C000704710B50446AFF300802046BDE81040E4
:1009D000FFF7E0BB4FF0013C50F8042B51F8043B0B
:1009E0009A4221D1A2EB0C03934313EACC1317D103
:1009F00050F8042B51F8043B9A4215D1A2EB0C039A
:100A0000934313EACC130BD150F8042B51F8043B59
:100A10009A4209D1A2EB0C03934313EACC13DBD027
:100A20004FF00000704700BFD01A01BAB1FA81F14F
:100A300001F0180122FA01F0CB40C1F12001DBB234
:100A4000C0B2C01A2CFA01F3D11A914311EAC311B2
:100A5000E6D1704701491820ABBEFEE72600020030
:100A600070475FEA400C08BF91F0000F4FEA8C23FB
:100A70004FEAC12243EA51514FEA1C5018BF00F51A
:100A8000F0404FEA300018BF41F000415FEA6C5C73
:100A900000F02980BCF1FF3F08BF40F08040704764
:100AA000130C06BF12044FF0100C4FF0000C130E85
:100AB00004BF12020CF1080C130F04BF12010CF159
:100AC000040C930F04BF92000CF1020CD30F04BF6F
:100AD00052000CF1010C11464FF00002A0F11F0072
:100AE000A0EB0C00704711F0004F08BF704731F0C9
:100AF00000413FF4D5AF0B0C06BF09044FF0100CBA
:100B00004FF0000C0B0E04BF09020CF1080C0B0F88
:100B100004BF09010CF1040C8B0F04BF89000CF118
:100B2000020CCB0F04BF49000CF1010CCCF12003E7
:100B3000A0EB0C0022FA03F302FA0CF241EA0301E3
:100B400000F10100704720F07F4C80EA030023F0A1
:100B50007F47ACEB070303F57C5300F0004003F143
:100B6000FF032DE980494FEA154B09B44FEA1443BE
:100B700025EA0B4E24EA03480FF2042606EB13275E
:100B800049083E785FEA320203FB0667C7F50007B3
:100B900007FB06F64FEA54374FEAD64606F102063F
:100BA00007FB066CCCF1005C4FEA1C472CEA074CB3
:100BB00007FB06F40CFB06F504EB15464FEA961608
:100BC00034BF00204FF000404FEAD13706FB07FC4E
:100BD0004FEA1C4C0CFB0BF7D21B03FB0CF761EB31
:100BE00007010CFB0EF7B0EB074072EB17420CFB52
:100BF00008F734BFA2EB0742B2EB074261EB1741A3
:100C00004FEA0C444FEA910706FB07FC4FEA1C4CE5
:100C10000CFB0BF7B0EBC74072EB573203FB0CF742
:100C200034BFA2EBC742B2EBC74261EB57310CFBBA
:100C30000EF7B0EBC70072EB57720CFB08F734BF2E
:100C4000A2EBC702B2EBC70261EB5771039F4FEAF9
:100C5000816141EA921104EBCC044FEAD1374FEAAB
:100C6000826206FB07FC42EA90124FEA80604FEA7C
:100C70001C4C0CFB0BF7D21B03FB0CF761EB0701C1
:100C80000CFB0EF7B0EB074072EB17420CFB08F7BA
:100C900034BFA2EB0742B2EB074261EB17414FEAC8
:100CA0008C554FEA910704EB9C2406FB07FC4FEAA6
:100CB0001C4C0CFB0BF7B0EBC74072EB573203FB3D
:100CC0000CF734BFA2EBC742B2EBC74261EB57311E
:100CD0000CFB0EF7B0EBC70072EB57720CFB08F77A
:100CE00034BFA2EBC702B2EBC70261EB577115EB41
:100CF0004C254FEA816141EA92114FEA82624FEA44
:100D0000D13742EA901206FB07FC44F100044FEA97
:100D100080604FEA1C4C0CFB0BF7D21B03FB0CF75B
:100D200061EB07010CFB0EF7B0EB074072EB1742CB
:100D30000CFB08F734BFA2EB0742B2EB074261EBB2
:100D4000174115EB1C154FEA813141EA92414FEAF8
:100D5000823242EA90424FEA80304FEA0C7644F108
:100D6000000448EA03434EEA0B484FF0000EB2EB92
:100D7000080C71EB030724BF624639464EEB0E0E9A
:100D80004FF0000B0018524149414BEB0B0BB2EBFB
:100D9000080C71EB03077BF1000B24BF6246394658
:100DA0004EEB0E0E4FF0000B0018524149414BEB39
:100DB0000B0BB2EB080C71EB03077BF1000B24BFAC
:100DC000624639464EEB0E0E51EA020718BF46F056
:100DD000010616EB0E7655F1000254F1000103D521
:100DE000BDE88901BDE80088BDE88901BDE800488B
:100DF000B619524141EB0101A3F101037047808014
:100E00007F7E7D7C7B7A7978777676757473727164
:100E100071706F6E6E6D6C6C6B6A6A69686867661C
:100E200066656464636362616160605F5F5E5E5DAE
:100E30005D5C5C5B5B5A5A59595858575756565522
:100E400055555454535352525251515050504F4F84
:100E50004F4E4E4D4D4D4C4C4C4B4B4B4A4A4A49D4
:100E60004949484848474747474646464545454417
:100E70004444444343434342424242414141002BA4
:100E80009C4630D477002BD01CB54FEA370703B40B
:100E90004FF010004FF01001BAF1000F06D0BCF176
:100EA000000FDCBF40F0080040F008014FF00000E8
:100EB0000FBCBDE810400BF1010BBBF1010F08BFE7
:100EC0005FEA170722BF12F1010211F101014FF091
:100ED000004143F1000300F0004043EA0000704786
:100EE000F9D35708D0E746EA064613F1400F4FEA18
:100EF00016461FDD13F1200FDFBF16430A460021FF
:100F000020335B42BED0C3F1200746EA064602FA10
:100F100007F74FEA164646EA0706C3F1200722FA0A
:100F200003F201FA07F721FA03F14FF0000342EA56
:100F30000702A7E746EA020646EA06464FEA1646D1
:100F400046EA0106BCBF46EA0646360C4FF00003EF
:100F50004FF000024FF0000194E72DE9804C9A46D3
:100F6000934670B491E8380007C831EA400C48BF96
:100F700034EA430C03D5FFF7E6FDFFF780FFF0BC32
:100F8000BDE8008C2DE9804C9A46934670B491E8F8
:100F9000380007C810F0804F08BF13F0804F03D10E
:100FA00000F005F8FFF76BFFF0BCBDE8008C20F007
:100FB0007F4780EA030023F07F4C07EB0C03A3F587
:100FC0007C5300F00040A3F1FE0392F0000F00F00C
:100FD000B38095F0000F00F077802DE901494FEACA
:100FE00011404FEA144621EA004800FB06FC24EABF
:100FF000064708FB06F607FB08F800FB07F718EBA7
:1010000006484CEB164C4FEA124B18EB07484FEAD8
:1010100015464CEB174022EA0B4E0BFB06FC25EA6B
:1010200006470EFB06F607FB0EFE0BFB07F71EEB53
:10103000064E4CEB164C4FF000061EEB074E4CEBE9
:10104000174B18EB0B0840F1000018EB0E0B58EB98
:10105000000840F100008F1A4FF000013CBFC94367
:10106000661B14BFB5EB040C00213CBFC943F61B43
:101070004FEA17444EEA8E0E27EA04454FEA1C4712
:1010800004FB07622CEA074C05FB07F70CFB05F68F
:1010900004FB0CFC16EB074642EB174216EB0C4622
:1010A00042EB1C421BEB060658EB0202414146EAAA
:1010B0009E0601D5BDE80189B619524141EB0101F7
:1010C000A3F10103BDE801894FEA14454FEA114736
:1010D00024EA054621EA074C05FB07F406FB07F75F
:1010E0000CFB06F105FB0CFC11EB074144EB17442C
:1010F0004FEA124711EB0C4144EB1C4422EA074C27
:1011000005FB07F206FB07F70CFB06F605FB0CFCDC
:1011100016EB074642EB174216EB0C4642EB1C451A
:101120006A1854F1000148BF7047B619524141EBAB
:101130000101A3F10103704795F0000F37D04FEA8A
:1011400011424FEA144721EA024624EA074C02FB07
:1011500007F106FB07F70CFB06F402FB0CFC14EB93
:10116000074441EB17414FEA154714EB0C4441EBA0
:101170001C4125EA074C02FB07F506FB07F70CFBB1
:1011800006F602FB0CFC16EB074645EB174516EB83
:101190000C4645EB1C42121951F1000148BF704743
:1011A000B619524141EB0101A3F1010370474FEA27
:1011B00014454FEA114724EA054621EA074C05FB8E
:1011C00007F106FB07F70CFB06F24FF0000605FBE4
:1011D0000CFC12EB074241EB174112EB0C4251EBB6
:1011E0001C4148BF7047921841EB0101A3F1010374
:1011F0007047000010B53148806940F004002F4965
:1012000088612F48006820F003002D4908600846D7
:10121000006820F00C0008600846006840F00400F8
:1012200008600846006820F0300008600846006842
:1012300020F0C00008600846006840F040000860E8
:101240001E48806940F001001C4988611D48806883
:1012500020F00F001B4988600846806888600846B7
:10126000806820F0F0008860084680688860164832
:10127000006840F00100144908600846006840F02A
:101280000200086010480830006840F001000E4974
:10129000083108600846006840F002000860062037
:1012A00000F099FA0021062000F0A0FA072000F0D3
:1012B00092FA0021072000F099FA10BD00100240B8
:1012C00000080140000001400004014008B5012170
:1012D000082000F0EFFA00220121084800F0D9F9B7
:1012E00010208DF803000120ADF800008DF80200F9
:1012F0006946024800F008F908BD0000000C0140F2
:10130000FEB5044600200190029010208DF80300E5
:101310000120ADF800008DF8020069463E4800F05B
:10132000F3F8002201213C4800F0B3F944F2506088
:1013300000F0B4F801221146374800F0AAF9042061
:101340008DF803006946344800F0DEF800BF012143
:10135000314800F091F90028F9D100BF01212E4851
:1013600000F08AF90028F9D000BF01212A4800F0D6
:1013700083F90028F9D100262CE00027002523E07E
:1013800000BF0121244800F077F90028F9D0282077
:1013900000F084F80121204800F06EF928B9C5F169
:1013A00007010120884087430CE000BF01211A4853
:1013B00000F062F90028F9D1C5F107010120884049
:1013C0003843C7B2681CC5B2082DD9DB01A88755C0
:1013D000701CC6B2052ED0DB9DF804009DF80510E8
:1013E00008449DF8061008449DF8071008449DF82D
:1013F000081088420DD19DF80400A0709DF80500EA
:10140000E0709DF8060020709DF8070060700020D5
:10141000FEBD0120FCE70000000C014070B500F0AB
:10142000D9FA14480068144AB0FBF2F1B1F1807F98
:1014300000D31DE021F07F40401E4FF0E0225061BC
:1014400050170F22002807DA13071D0E0B4B00F070
:101450000F04241F1D5503E013071C0E084B1C54DA
:1014600000BF00204FF0E02290610720106100BF14
:1014700070BD00000C00002040420F0018ED00E09D
:1014800000E400E000B5024603E04FF47A7000F09B
:1014900005F8101EA2F10102F7D100BD0349086052
:1014A00000BF024909680029FBD1704700000020F5
:1014B0000848006800F0010050B107480068401C6F
:1014C000054908600348006840F0010001490860D0
:1014D000704700001404014008000020084800681C
:1014E00000F0020050B107480068401E054908603E
:1014F0000348006840F0020001490860704700009E
:1015000014040140080000202DE9F04102460025A6
:101510000026002000230024002791F803C00CF0CF
:101520000F0591F803C00CF0100CBCF1000F03D0B4
:1015300091F802C04CEA050591F800C0BCF1000F1B
:1015400031D0146800202BE04FF0010C0CFA00F3AE
:10155000B1F800C00CEA03069E4220D183004FF090
:101560000F0C0CFA03F7BC4305FA03FC4CEA040425
:1015700091F803C0BCF1280F06D14FF0010C0CFA12
:1015800000FCC2F814C00AE091F803C0BCF1480F97
:1015900005D14FF0010C0CFA00FCC2F810C0401C41
:1015A0000828D1D31460B1F800C0BCF1FF0F34DDBE
:1015B000546800202EE000F1080C4FF0010808FAF2
:1015C0000CF3B1F800C00CEA03069E4221D183005F
:1015D0004FF00F0C0CFA03F7BC4305FA03FC4CEA7E
:1015E000040491F803C0BCF1280F05D100F1080CE8
:1015F00008FA0CF8C2F8148091F803C0BCF1480F47
:1016000007D100F1080C4FF0010808FA0CF8C2F8F5
:101610001080401C0828CED35460BDE8F081000043
:1016200008B50121142000F045F900224FF4306183
:101630000F4800F02EF800224FF460410D4800F0F2
:1016400028F810208DF803004FF47060ADF800000A
:1016500001208DF8020069460548FFF755FF4FF459
:101660006040ADF8000069460248FFF74DFF08BD35
:1016700000080140001001400246002093680B4022
:101680000BB1012000E0002070474161704701610B
:1016900070470AB1016100E04161704710B54FF435
:1016A00000410748FFF7F3FF0120FFF7EBFE4FF47F
:1016B00000410348FFF7E9FF0120FFF7E3FE10BDFB
:1016C0000010014070B506460C461CB906F18000BA
:1016D000C5B204E0012C02D106F1C000C5B2284613
:1016E00000F06CF870BD000010B5FFF799FF002006
:1016F00000F042F800224FF400510F48FFF7C9FFF5
:10170000032000F039F8FFF7C9FFFFF7C7FFFFF725
:10171000C5FF022000F030F8FFF7C0FF282000F0DE
:101720004DF80C2000F04AF8062000F047F80120A0
:1017300000F044F810BD00000010014010B5044650
:101740004FF400510548FFF7A2FF204600F036F89D
:101750004FF400510148FFF798FF10BD0010014001
:1017600010B5044603E02078FFF7E8FF641C2078FA
:101770000028F8D110BD000010B5044604F00102A5
:101780004FF480710C48FFF784FFC4F340024FF41C
:1017900000710948FFF77DFFC4F380024FF48061B8
:1017A0000548FFF776FFC4F3C0024FF4006102481A
:1017B000FFF76FFF10BD00000008014010B50446A0
:1017C0002011FFF7D9FFFFF769FF2046FFF7D4FF8D
:1017D000FFF764FF10BD00F01F0201219140420994
:1017E000920002F1E022C2F80011704710B5002803
:1017F00007DA0A07140E054A00F00F031B1FD45422
:1018000003E00A07130E024A135410BD18ED00E05E
:1018100000E400E0B0F57A7F04D340F2E731034AF8
:10182000118001E0014A1080704700003804004038
:101830001D48806940F004001B4988611B4800680E
:1018400020F07040194908600846006840F02040C8
:1018500008601548C06940F002001349C8610020C3
:101860001349088040F2E730091D08800020104924
:10187000103108800E481038008840F4C0400C49F0
:10188000103908800A480838008840F010000849DC
:101890000839088006482838008840F001000449CB
:1018A00028390880704700000010024000080140FD
:1018B0002804004029B1064A92690243044B9A6108
:1018C00004E0034A92698243014B9A617047000029
:1018D0000010024010B500F001F810BD0CB500205A
:1018E000019000903348006840F48030314908602E
:1018F00000BF3048006800F4003000900198401CA0
:101900000190009818B90198B0F5A06FF1D129485D
:10191000006800F4003010B10120009001E00020C8
:1019200000900098012843D12348006840F010003F
:10193000214908600846006820F003000860084656
:10194000006840F0020008601A4840681949486081
:101950000846406848600846406840F48060486037
:101960000846406820F47C1048600846406840F40F
:10197000E81048600846006840F08070086000BFCA
:101980000C48006800F000700028F9D00948406851
:1019900020F00300074948600846406840F0020014
:1019A000486000BF0348406800F00C000828F9D1E7
:1019B0000CBD0000001002400020024004480068F6
:1019C00020B103480068401E0149086070470000CC
:1019D0000000002010B5002100200022214B5B6890
:1019E00003F00C0121B1042906D0082928D107E011
:1019F0001D4B1E4C236027E01B4B1C4C236023E037
:101A0000184B5B6803F47010164B5B6803F480326C
:101A1000022303EB904022B9154B4343134C236040
:101A20000DE0104B5B6803F4003323B1104B4343CC
:101A30000E4C236003E00C4B43430C4C236003E04B
:101A4000094B0A4C236000BF00BF064B5B68C3F321
:101A50000313084CE15C054B1B68CB40034C23602F
:101A600010BD00000010024000127A000C0000209F
:101A700000093D001000002010B51348006840F038
:101A800001001149086008464068104908400E49A5
:101A90004860084600680E4908400B49086008463F
:101AA000006820F4802008600846406820F4FE00AA
:101AB00048604FF41F008860FFF70CFF4FF0006094
:101AC0000449086010BD0000001002400000FFF84B
:101AD000FFFFF6FE08ED00E0490050EAC12018BF04
:101AE00004204A0D18BF40F0010040F2FF72B2EB33
:101AF000515F08BF40F00200012808BF0520704771
:101B000030380A2801D201207047002070470000B9
:101B100086B0FFF783FCFFF7E7FDFFF7D7FBFFF782
:101B200087FEFFF767FB00210846FFF7CBFD33A0D8
:101B3000FFF716FE60E03448FFF7E2FB002858D1BB
:101B40003148FFF7DDFB3049487800F069F9064677
:101B50002E4A2F4B00F078F904460D462A490878A2
:101B600000F05EF9804622462B4600F0B1F8CDE940
:101B7000000100F07BF88246504600F04DFB044621
:101B800022460B4623A102A8FEF72AFB00210846A5
:101B9000FFF798FD02A8FFF7E3FD2248006800F078
:101BA000ABFC064600F038FB044622460B461EA15D
:101BB00002A8FEF715FB01210020FFF783FD02A814
:101BC000FFF7CEFD1748006800F096FC80465146AE
:101BD00000F076FD0746184900F0ACFB06461749B1
:101BE00000F0A2FC054600F067FC0446FFF712FE79
:101BF00000BF6420FFF746FC9DE70000737461722C
:101C000074696E6700000000040000209A99999999
:101C10009999B93F4375722054656D703A20252E0D
:101C200031660000080000205461722054656D7018
:101C30003A20252E316600000000204100C0794482
:101C400010B500290AD00878002807D00548784444
:101C5000FEF7C0FE002801D0002010BD02487844E5
:101C600010BD00002A0C0000220C000021F00042F0
:101C7000A2F16052B2F5801F01F0004328BFD2F1FB
:101C80007F6C0BD95FEA001C43EAC20242EB507042
:101C900018BF704728BF20F001007047B2F5801FC1
:101CA000BCBF184670474FEA410C1CF5001F02D21A
:101CB000084600F000BD70B500F070F90000008922
:101CC000FFF7F6BF4FF00040A0F58000704700001E
:101CD00010B591EA030F48BF83F0004300F1BA81C9
:101CE000841A71EB030C05D2121943EB0C03001B91
:101CF00061EB0C01DFF824E14FEA1154A4EB135C13
:101D00001EEA430F18BF9EEA445F73D023EA0E0316
:101D1000DCF1200E21EA045143F4801332D322FA7D
:101D20000CFE10EB0E0023FA0CFE41EB0E01CCF181
:101D3000200E03FA0EFE10EB0E0051F10001B1F57A
:101D4000801FCCF1200E32D201EB045112FA0EF2B8
:101D5000BDE8104058BF7047401C38BF5FEA4202E0
:101D600018BF7047002814BF20F0010041F10001A6
:101D70004FEA410313F5001F38BF7047A1F1C0417E
:101D800000F05AB9012A43EB0302ACF1200CDCF15C
:101D90001F0E32BF4FF0000E23FA0CF310EB0300BE
:101DA00041EB0451B4EB115FD0D0A1EB045101F52C
:101DB000801149085FEA300001EB04510ED350F165
:101DC000000038BF12FA0EFE08D1BDE81040C9E786
:101DD000401C38BF5FEA4202CAD1C3E7BDE81040E9
:101DE0004FEA410313F5001F38BF7047A1F1C0410E
:101DF00000F022B99EEA445F08D011EA5E0FBDE808
:101E0000104004BF01F0004100207047BDE81040C1
:101E100070B500F0C3F800BF64FBBE3E0000E0FFF9
:101E2000B0FA80F310FA03F10AD0C3F11D0303F5F1
:101E300080634FEA41504FEA035202EBD1217047D1
:101E40004FF0000070470000DFF848C170B51CEA91
:101E5000111E1EBF1CEA13159EEA0C0F95EA0C0F0B
:101E600000F06F8081EA030423EA4C134EEAD47E2B
:101E700021EA4C1141F4801143F48013AE44A1FBDC
:101E8000024CA0FB0365AEF17F7E361955EB0C05C5
:101E9000A1FB034C4CF10003A0FB021C16EB0C064B
:101EA000654153F10003094218BF46F0010613F4DF
:101EB000007F0BD14FEA03314FEA0530340341EA8A
:101EC000155140EA16506FF003020AE04FEAC321B1
:101ED0004FEAC520F40241EA555140EA56506FF0EE
:101EE000020202EB2E4201EB025585EACE710AD0C6
:101EF0005FEA440C18BF24F0004450F1000041F1A7
:101F0000000120EAD47040F2FE7C624500D270BD30
:101F1000A84214BF4FF080444FF04044002E08BF49
:101F20000024BEF1806FA8BFA1F1C041BDE87040A0
:101F300080F282804FF0000001F1C04101F00041C9
:101F400070479EEA0C0F0CEA131518BF95EA0C0FA8
:101F500006D04FF0000081EA030E0EF0004170BD84
:101F600000F01CF88900013E00F007B800F009B845
:101F70004FEA430C5FEA5C5C08D081EA030100F0A1
:101F80005BB84FEA410C5FEA5C5CF6D14FF00000B1
:101F9000014970470000FF070000F87F0EF1020EB4
:101FA0002EF0030E5EF8046B364205D4012A43EB93
:101FB000030515F5001F12D8012841EB010C1CF593
:101FC000001F0CD80ED14FEAD17C15F5001F0CEB89
:101FD0004C0C0CF1020C08BF4CEBD37C04E04FF02E
:101FE000080C01E04FEAD37C0CEB4C0526FA05F611
:101FF00006F00706B6F1040C06D20EEB860CBDE81F
:1020000070404CF0010C6047DFE80CF0090B020255
:102010004FF000414FF00000A1F5002170BD1946BE
:102020001046012851EB010418BFD4F5001484BFF9
:10203000002001F0004170BD0808A0F500114FEA32
:102040003101704710B591EA030F48BF83F0004398
:102050003FF546AE841A71EB030C07D212198CF0CF
:10206000004C43EB0C03001B61EB0C01DFF8A4E117
:102070004FEA1154A4EB135C1EEA430F18BF9EEA0B
:10208000445F00F0B08023EA6E03524221EA04511B
:10209000C3EB6E0338BF5B1EDCF1200E25D322FAA2
:1020A0000CFE10EB0E0043FA0CFE41EB0E01CCF1DE
:1020B000200E03FA0EFE10EB0E0051F10001CCF1E0
:1020C000200E29D412FA0EF201EB0451BDE81040A3
:1020D00058BF7047401C1CBFB2F1004F704700282A
:1020E0000CBF491C20F00100704712EB020E43EBBD
:1020F000030218BF4FF0010E4EEA4202ACF1200C71
:10210000DCF11E0E54D943FA0CFE10EB0E0051F117
:10211000FF31CCF11E0ED5D50EF1010E12FA0EFED6
:10212000404141EB010101EB445C5FEA5C5C10D98A
:1021300010EBDE7001EB045138BFBEF1004FBDE87B
:10214000104018BF704700280CBF491C20F0010048
:10215000704730D24FEAD42C11F5001124F40064FA
:102160001BD0B1FA81F20B3AA41AA41ED2F12003BB
:10217000914030FA03F31943904001EBCC71002CED
:1021800001EB0451BDE81040A8BF704701F1C04108
:102190004FF0000001F000417047B0FA80F310FAF0
:1021A00003F100D110BDE41A173C4805C90AE4E761
:1021B00001EB045110BD491001EB0451BDE8104082
:1021C0004FEA300002E04FF0000170474A0008BFBC
:1021D0000042F8D0B2F5001F28BF704701F000415F
:1021E0004FF0000070479EEA445F07D011EA5E0F8F
:1021F000BDE8104004BF002100207047BDE810403A
:1022000070B5FFF7CBFE00BF40DFF63E83F0004124
:10221000104670470000E0FF43004FEAD30C4FEA3E
:102220003C0C43401FBF40070CF1605113F0FE4FC0
:1022300070471CF0006F03D100200CF00041704784
:102240000CF0004343EA507010B540EACC0000F0B7
:10225000ECF900BF000000924FEA0001FFF7ECBE6E
:102260004FF000414FF00000A1F500217047000041
:1022700090EA010F48BF81F0004100F13282421A1A
:102280003CBF801A89184FEAD0524FF07F4C1CEAAD
:10229000410FA2EBD15318BF9CEA026F00F03B80C4
:1022A0004FF0004C4CEA00204CEA012121FA03FCDB
:1022B00010EB0C0C1ED202F1FF325FEA1C2040EB47
:1022C000C25038BF70471CF07F0F4FEA400C18BF58
:1022D000BCF17F4F38BF7047C3F12003994008BF5E
:1022E00020F00100BCF17F4F38BF7047A0F1C04023
:1022F00000F0E1B94FEA3C00000A40EBC25028BFB1
:102300001CF0FF0F4FEA400CE6D018BFBCF17F4F26
:1023100038BF7047EAE79CEA026F05D010EA5C0F0D
:1023200008BF00F00040704710B500F07EF900BF14
:1023300064FBBE3E4FF47F0C1CEAD0121EBF1CEAA9
:10234000D11392EA0C0F93EA0C0F00F0858090EA0B
:10235000010F48BF42F4807240F4000C41F40000C9
:102360002CF07F4120F07F4000B58142A2EB0302B8
:102370000FF2081CACEB504EC0F100009EF800E0DC
:102380004FEA4E0E00FB0EFC38BF49004FEA2C1CF2
:1023900002F5FA020CFB0EF34FEACE1E4FEA112CA7
:1023A0004FEAC1210EEB635E42EB22420EFB0CFCB6
:1023B0004FEA1C5300FB03114FEA112C4FEA013185
:1023C0000EFB0CFC4FEADC4C00FB0C11C14228BF99
:1023D00009184CEB03335DF804EB10EB410143EBC0
:1023E000C250B2F57C0F38BF704729D512F0F00FFC
:1023F0001CBF00F1C04000F00040704700818283A4
:102400008485868788898B8C8D8E8F919293959603
:1024100097999A9C9D9FA0A2A3A5A7A8AAACAEB08D
:10242000B2B3B5B7B9BCBEC0C2C5C7C9CCCED1D492
:10243000D7D9DCDFE2E6E9ECF0F3F7FAFE000000C2
:102440004FEA400C0CF1807CBCF17E4F28BF7047F6
:10245000B0F1C04000F02FB990EA010F0CEAD1139F
:1024600048BF42F48072624538BF634507D213F417
:102470007F0F16D080EA010000F00040704710B5D1
:1024800000F0D3F8097EFC3E00F005B880EA0100B8
:1024900000F00040704780EA010000F0004000F0CA
:1024A0000AB912F47F0F04BF0248704780EA0100A6
:1024B00000F001B90000C07FC10DD1F19E0206DB22
:1024C0004FEA002343F0004323FA02F07047004232
:1024D00007D54FEA4001B1F1FE4F02D24FF00000A4
:1024E000704710B500F0A1F8499224800020704791
:1024F0006FEA20007047000010F0004148BF4042E2
:10250000B0FA80F310FA03F2C3F19D030BD051EA45
:10251000C35101EB1220530638BF704700F1010090
:1025200008BF20F0010070474FF47F0C1CEAD01266
:102530001EBF1CEAD11392EA0C0F93EA0C0F00F0B5
:10254000478090EA010F48BF42F480724FF0004C80
:102550004CEA00204CEA012102EB0302A0FB01132C
:10256000A2F50002002918BF43F001035B0028BF59
:102570004FEA330342EB22425FEA132C4CEBC2508A
:102580002EBFBCEB436FB2F57C0F70474FEA036C74
:10259000BCF1004F08BF20F00100B2F57C0F38BF3E
:1025A00070470BD582F0FF0212F5803FC8BF70471D
:1025B00000F1C040D8BF00F00040704700F5000CAB
:1025C0005FEA4C0C48BF7047B0F1C04000F073B8F0
:1025D00090EA010F0CEAD11348BF42F480726245C1
:1025E00038BF634504D280EA010000F00040704724
:1025F00010B500F01AF800BF8900013E00F007B8DE
:1026000000F009B85FEA410C5FEA1C6C08D080EA70
:10261000010000F050B85FEA400C5FEA1C6CF6D194
:102620004FF00040A0F5800070470EF1020E2EF032
:10263000030E5EF8044B244204D44FEA4102B2F187
:102640007F4F11D84FEA4003B3F17F4F0CD80ED122
:102650004FEAD07CB2F17F4F0CEB4C0C0CF1020C2A
:1026600008BF4CEBD17C04E04FF0080C01E04FEACE
:10267000D17C0CEB4C0324FA03F404F00704B4F10E
:10268000040C06D20EEB840CBDE810404CF0010C9B
:102690006047DFE80CF0070802024FF00040A0F5A9
:1026A000800010BD0846420018BFD2F1807288BF7A
:1026B00000F0004010BDFF2141EAD050C005704736
:1026C00080F0004090EA010F7FF5D9AD81F0004124
:1026D00000F007B890EA010F48BF81F000413FF5D4
:1026E000CEAD421A04D882F00042A0EB02001144A1
:1026F0004FEAD0524FF07F4C1CEA410FA2EBD1536E
:1027000018BF9CEA026F4AD04FF0004C4CEA002000
:102710004CEA012121FA03FCB0EB0C0C0FD412F0AF
:10272000FE0F36D05FEA4C001DD5001240EBC250C0
:1027300038BF70471CF03F0F18BF70470BE0A2F185
:1027400001025FEA1C2040EBC25038BF70471CF00A
:102750007F0F18BF7047C3F12003994014BF401E7C
:1027600020F00100704780084FEA122308BF70472D
:10277000B0FA80FCA2EB0C02CCF1280C60FA0CF051
:1027800093EA122F04BF00EBC25070474FEAC370A8
:102790007047130A5FEADC1008BF7047F6E79CEA4F
:1027A000026F04D010EA5C0F08BF0020704710B51C
:1027B000FFF73BFF40DFF63E81F000407047FDF73A
:1027C00086BE000002400000000000A000000000E3
:1027D00005400000000000C8000000000C400000A0
:1027E0000000409C00000000194000000020BCBE1A
:1027F0000000000034400000BFC91B8E0000000430
:10280000B5400000504BCFD06607E2CF010000007A
:102810006C4100003E8251AADFEEA73401000000A7
:10282000D9420000DCB5A0E23A301F97FFFFFFFF5E
:10283000B4450000FD25A0C8E9A3C14FFFFFFFFF7D
:10284000FF3F00000000008000000000FF3F00008C
:102850000000008000000000942800080000002014
:102860002000000028010008B428000820000020F3
:1028700060060000440100081C0000004300000046
:10288000F8FFFFFF0C0000000E0000000F0000002A
:102890002E000000000000000000000019000000F1
:1028A00000A24A040000000000000000010203042E
:0428B0000607080906
:04000005080000ED02
:00000001FF
